{
  "_format": "hh-sol-artifact-1",
  "contractName": "MyNFT",
  "sourceName": "contracts/MyNFT.sol",
  "abi": [
    {
      "inputs": [],
      "stateMutability": "nonpayable",
      "type": "constructor"
    },
    {
      "inputs": [
        {
          "internalType": "address",
          "name": "sender",
          "type": "address"
        },
        {
          "internalType": "uint256",
          "name": "tokenId",
          "type": "uint256"
        },
        {
          "internalType": "address",
          "name": "owner",
          "type": "address"
        }
      ],
      "name": "ERC721IncorrectOwner",
      "type": "error"
    },
    {
      "inputs": [
        {
          "internalType": "address",
          "name": "operator",
          "type": "address"
        },
        {
          "internalType": "uint256",
          "name": "tokenId",
          "type": "uint256"
        }
      ],
      "name": "ERC721InsufficientApproval",
      "type": "error"
    },
    {
      "inputs": [
        {
          "internalType": "address",
          "name": "approver",
          "type": "address"
        }
      ],
      "name": "ERC721InvalidApprover",
      "type": "error"
    },
    {
      "inputs": [
        {
          "internalType": "address",
          "name": "operator",
          "type": "address"
        }
      ],
      "name": "ERC721InvalidOperator",
      "type": "error"
    },
    {
      "inputs": [
        {
          "internalType": "address",
          "name": "owner",
          "type": "address"
        }
      ],
      "name": "ERC721InvalidOwner",
      "type": "error"
    },
    {
      "inputs": [
        {
          "internalType": "address",
          "name": "receiver",
          "type": "address"
        }
      ],
      "name": "ERC721InvalidReceiver",
      "type": "error"
    },
    {
      "inputs": [
        {
          "internalType": "address",
          "name": "sender",
          "type": "address"
        }
      ],
      "name": "ERC721InvalidSender",
      "type": "error"
    },
    {
      "inputs": [
        {
          "internalType": "uint256",
          "name": "tokenId",
          "type": "uint256"
        }
      ],
      "name": "ERC721NonexistentToken",
      "type": "error"
    },
    {
      "inputs": [
        {
          "internalType": "address",
          "name": "owner",
          "type": "address"
        }
      ],
      "name": "OwnableInvalidOwner",
      "type": "error"
    },
    {
      "inputs": [
        {
          "internalType": "address",
          "name": "account",
          "type": "address"
        }
      ],
      "name": "OwnableUnauthorizedAccount",
      "type": "error"
    },
    {
      "anonymous": false,
      "inputs": [
        {
          "indexed": true,
          "internalType": "address",
          "name": "owner",
          "type": "address"
        },
        {
          "indexed": true,
          "internalType": "address",
          "name": "approved",
          "type": "address"
        },
        {
          "indexed": true,
          "internalType": "uint256",
          "name": "tokenId",
          "type": "uint256"
        }
      ],
      "name": "Approval",
      "type": "event"
    },
    {
      "anonymous": false,
      "inputs": [
        {
          "indexed": true,
          "internalType": "address",
          "name": "owner",
          "type": "address"
        },
        {
          "indexed": true,
          "internalType": "address",
          "name": "operator",
          "type": "address"
        },
        {
          "indexed": false,
          "internalType": "bool",
          "name": "approved",
          "type": "bool"
        }
      ],
      "name": "ApprovalForAll",
      "type": "event"
    },
    {
      "anonymous": false,
      "inputs": [
        {
          "indexed": false,
          "internalType": "uint256",
          "name": "_fromTokenId",
          "type": "uint256"
        },
        {
          "indexed": false,
          "internalType": "uint256",
          "name": "_toTokenId",
          "type": "uint256"
        }
      ],
      "name": "BatchMetadataUpdate",
      "type": "event"
    },
    {
      "anonymous": false,
      "inputs": [
        {
          "indexed": false,
          "internalType": "uint256",
          "name": "_tokenId",
          "type": "uint256"
        }
      ],
      "name": "MetadataUpdate",
      "type": "event"
    },
    {
      "anonymous": false,
      "inputs": [
        {
          "indexed": true,
          "internalType": "address",
          "name": "previousOwner",
          "type": "address"
        },
        {
          "indexed": true,
          "internalType": "address",
          "name": "newOwner",
          "type": "address"
        }
      ],
      "name": "OwnershipTransferred",
      "type": "event"
    },
    {
      "anonymous": false,
      "inputs": [
        {
          "indexed": true,
          "internalType": "address",
          "name": "from",
          "type": "address"
        },
        {
          "indexed": true,
          "internalType": "address",
          "name": "to",
          "type": "address"
        },
        {
          "indexed": true,
          "internalType": "uint256",
          "name": "tokenId",
          "type": "uint256"
        }
      ],
      "name": "Transfer",
      "type": "event"
    },
    {
      "inputs": [
        {
          "internalType": "address",
          "name": "to",
          "type": "address"
        },
        {
          "internalType": "uint256",
          "name": "tokenId",
          "type": "uint256"
        }
      ],
      "name": "approve",
      "outputs": [],
      "stateMutability": "nonpayable",
      "type": "function"
    },
    {
      "inputs": [
        {
          "internalType": "address",
          "name": "owner",
          "type": "address"
        }
      ],
      "name": "balanceOf",
      "outputs": [
        {
          "internalType": "uint256",
          "name": "",
          "type": "uint256"
        }
      ],
      "stateMutability": "view",
      "type": "function"
    },
    {
      "inputs": [
        {
          "internalType": "string",
          "name": "tokenURI",
          "type": "string"
        }
      ],
      "name": "createNFT",
      "outputs": [
        {
          "internalType": "uint256",
          "name": "",
          "type": "uint256"
        }
      ],
      "stateMutability": "nonpayable",
      "type": "function"
    },
    {
      "inputs": [
        {
          "internalType": "uint256",
          "name": "tokenId",
          "type": "uint256"
        }
      ],
      "name": "getApproved",
      "outputs": [
        {
          "internalType": "address",
          "name": "",
          "type": "address"
        }
      ],
      "stateMutability": "view",
      "type": "function"
    },
    {
      "inputs": [
        {
          "internalType": "address",
          "name": "owner",
          "type": "address"
        },
        {
          "internalType": "address",
          "name": "operator",
          "type": "address"
        }
      ],
      "name": "isApprovedForAll",
      "outputs": [
        {
          "internalType": "bool",
          "name": "",
          "type": "bool"
        }
      ],
      "stateMutability": "view",
      "type": "function"
    },
    {
      "inputs": [],
      "name": "name",
      "outputs": [
        {
          "internalType": "string",
          "name": "",
          "type": "string"
        }
      ],
      "stateMutability": "view",
      "type": "function"
    },
    {
      "inputs": [],
      "name": "owner",
      "outputs": [
        {
          "internalType": "address",
          "name": "",
          "type": "address"
        }
      ],
      "stateMutability": "view",
      "type": "function"
    },
    {
      "inputs": [
        {
          "internalType": "uint256",
          "name": "tokenId",
          "type": "uint256"
        }
      ],
      "name": "ownerOf",
      "outputs": [
        {
          "internalType": "address",
          "name": "",
          "type": "address"
        }
      ],
      "stateMutability": "view",
      "type": "function"
    },
    {
      "inputs": [],
      "name": "renounceOwnership",
      "outputs": [],
      "stateMutability": "nonpayable",
      "type": "function"
    },
    {
      "inputs": [
        {
          "internalType": "address",
          "name": "from",
          "type": "address"
        },
        {
          "internalType": "address",
          "name": "to",
          "type": "address"
        },
        {
          "internalType": "uint256",
          "name": "tokenId",
          "type": "uint256"
        }
      ],
      "name": "safeTransferFrom",
      "outputs": [],
      "stateMutability": "nonpayable",
      "type": "function"
    },
    {
      "inputs": [
        {
          "internalType": "address",
          "name": "from",
          "type": "address"
        },
        {
          "internalType": "address",
          "name": "to",
          "type": "address"
        },
        {
          "internalType": "uint256",
          "name": "tokenId",
          "type": "uint256"
        },
        {
          "internalType": "bytes",
          "name": "data",
          "type": "bytes"
        }
      ],
      "name": "safeTransferFrom",
      "outputs": [],
      "stateMutability": "nonpayable",
      "type": "function"
    },
    {
      "inputs": [
        {
          "internalType": "address",
          "name": "operator",
          "type": "address"
        },
        {
          "internalType": "bool",
          "name": "approved",
          "type": "bool"
        }
      ],
      "name": "setApprovalForAll",
      "outputs": [],
      "stateMutability": "nonpayable",
      "type": "function"
    },
    {
      "inputs": [
        {
          "internalType": "bytes4",
          "name": "interfaceId",
          "type": "bytes4"
        }
      ],
      "name": "supportsInterface",
      "outputs": [
        {
          "internalType": "bool",
          "name": "",
          "type": "bool"
        }
      ],
      "stateMutability": "view",
      "type": "function"
    },
    {
      "inputs": [],
      "name": "symbol",
      "outputs": [
        {
          "internalType": "string",
          "name": "",
          "type": "string"
        }
      ],
      "stateMutability": "view",
      "type": "function"
    },
    {
      "inputs": [],
      "name": "tokenCounter",
      "outputs": [
        {
          "internalType": "uint256",
          "name": "",
          "type": "uint256"
        }
      ],
      "stateMutability": "view",
      "type": "function"
    },
    {
      "inputs": [
        {
          "internalType": "uint256",
          "name": "tokenId",
          "type": "uint256"
        }
      ],
      "name": "tokenURI",
      "outputs": [
        {
          "internalType": "string",
          "name": "",
          "type": "string"
        }
      ],
      "stateMutability": "view",
      "type": "function"
    },
    {
      "inputs": [
        {
          "internalType": "address",
          "name": "from",
          "type": "address"
        },
        {
          "internalType": "address",
          "name": "to",
          "type": "address"
        },
        {
          "internalType": "uint256",
          "name": "tokenId",
          "type": "uint256"
        }
      ],
      "name": "transferFrom",
      "outputs": [],
      "stateMutability": "nonpayable",
      "type": "function"
    },
    {
      "inputs": [
        {
          "internalType": "address",
          "name": "newOwner",
          "type": "address"
        }
      ],
      "name": "transferOwnership",
      "outputs": [],
      "stateMutability": "nonpayable",
      "type": "function"
    }
  ],
  "bytecode": "0x60806040523480156200001157600080fd5b50336040518060400160405280600581526020017f4d794e46540000000000000000000000000000000000000000000000000000008152506040518060400160405280600481526020017f4d4e465400000000000000000000000000000000000000000000000000000000815250816000908162000090919062000472565b508060019081620000a2919062000472565b505050600073ffffffffffffffffffffffffffffffffffffffff168173ffffffffffffffffffffffffffffffffffffffff16036200011a5760006040517f1e4fbdf70000000000000000000000000000000000000000000000000000000081526004016200011191906200059e565b60405180910390fd5b6200012b816200013260201b60201c565b50620005bb565b6000600760009054906101000a900473ffffffffffffffffffffffffffffffffffffffff16905081600760006101000a81548173ffffffffffffffffffffffffffffffffffffffff021916908373ffffffffffffffffffffffffffffffffffffffff1602179055508173ffffffffffffffffffffffffffffffffffffffff168173ffffffffffffffffffffffffffffffffffffffff167f8be0079c531659141344cd1fd0a4f28419497f9722a3daafe3b4186f6b6457e060405160405180910390a35050565b600081519050919050565b7f4e487b7100000000000000000000000000000000000000000000000000000000600052604160045260246000fd5b7f4e487b7100000000000000000000000000000000000000000000000000000000600052602260045260246000fd5b600060028204905060018216806200027a57607f821691505b60208210810362000290576200028f62000232565b5b50919050565b60008190508160005260206000209050919050565b60006020601f8301049050919050565b600082821b905092915050565b600060088302620002fa7fffffffffffffffffffffffffffffffffffffffffffffffffffffffffffffffff82620002bb565b620003068683620002bb565b95508019841693508086168417925050509392505050565b6000819050919050565b6000819050919050565b6000620003536200034d62000347846200031e565b62000328565b6200031e565b9050919050565b6000819050919050565b6200036f8362000332565b620003876200037e826200035a565b848454620002c8565b825550505050565b600090565b6200039e6200038f565b620003ab81848462000364565b505050565b5b81811015620003d357620003c760008262000394565b600181019050620003b1565b5050565b601f8211156200042257620003ec8162000296565b620003f784620002ab565b8101602085101562000407578190505b6200041f6200041685620002ab565b830182620003b0565b50505b505050565b600082821c905092915050565b6000620004476000198460080262000427565b1980831691505092915050565b600062000462838362000434565b9150826002028217905092915050565b6200047d82620001f8565b67ffffffffffffffff81111562000499576200049862000203565b5b620004a5825462000261565b620004b2828285620003d7565b600060209050601f831160018114620004ea5760008415620004d5578287015190505b620004e1858262000454565b86555062000551565b601f198416620004fa8662000296565b60005b828110156200052457848901518255600182019150602085019450602081019050620004fd565b8683101562000544578489015162000540601f89168262000434565b8355505b6001600288020188555050505b505050505050565b600073ffffffffffffffffffffffffffffffffffffffff82169050919050565b6000620005868262000559565b9050919050565b620005988162000579565b82525050565b6000602082019050620005b560008301846200058d565b92915050565b61265a80620005cb6000396000f3fe608060405234801561001057600080fd5b50600436106101165760003560e01c80638da5cb5b116100a2578063c87b56dd11610071578063c87b56dd146102cb578063d082e381146102fb578063da2ed03e14610319578063e985e9c514610349578063f2fde38b1461037957610116565b80638da5cb5b1461025757806395d89b4114610275578063a22cb46514610293578063b88d4fde146102af57610116565b806323b872dd116100e957806323b872dd146101b557806342842e0e146101d15780636352211e146101ed57806370a082311461021d578063715018a61461024d57610116565b806301ffc9a71461011b57806306fdde031461014b578063081812fc14610169578063095ea7b314610199575b600080fd5b61013560048036038101906101309190611ac5565b610395565b6040516101429190611b0d565b60405180910390f35b6101536103f6565b6040516101609190611bb8565b60405180910390f35b610183600480360381019061017e9190611c10565b610488565b6040516101909190611c7e565b60405180910390f35b6101b360048036038101906101ae9190611cc5565b6104a4565b005b6101cf60048036038101906101ca9190611d05565b6104ba565b005b6101eb60048036038101906101e69190611d05565b6105bc565b005b61020760048036038101906102029190611c10565b6105dc565b6040516102149190611c7e565b60405180910390f35b61023760048036038101906102329190611d58565b6105ee565b6040516102449190611d94565b60405180910390f35b6102556106a8565b005b61025f6106bc565b60405161026c9190611c7e565b60405180910390f35b61027d6106e6565b60405161028a9190611bb8565b60405180910390f35b6102ad60048036038101906102a89190611ddb565b610778565b005b6102c960048036038101906102c49190611f50565b61078e565b005b6102e560048036038101906102e09190611c10565b6107ab565b6040516102f29190611bb8565b60405180910390f35b6103036108be565b6040516103109190611d94565b60405180910390f35b610333600480360381019061032e9190612074565b6108c4565b6040516103409190611d94565b60405180910390f35b610363600480360381019061035e91906120bd565b61090a565b6040516103709190611b0d565b60405180910390f35b610393600480360381019061038e9190611d58565b61099e565b005b6000634906490660e01b7bffffffffffffffffffffffffffffffffffffffffffffffffffffffff1916827bffffffffffffffffffffffffffffffffffffffffffffffffffffffff191614806103ef57506103ee82610a24565b5b9050919050565b6060600080546104059061212c565b80601f01602080910402602001604051908101604052809291908181526020018280546104319061212c565b801561047e5780601f106104535761010080835404028352916020019161047e565b820191906000526020600020905b81548152906001019060200180831161046157829003601f168201915b5050505050905090565b600061049382610b06565b5061049d82610b8e565b9050919050565b6104b682826104b1610bcb565b610bd3565b5050565b600073ffffffffffffffffffffffffffffffffffffffff168273ffffffffffffffffffffffffffffffffffffffff160361052c5760006040517f64a0ae920000000000000000000000000000000000000000000000000000000081526004016105239190611c7e565b60405180910390fd5b6000610540838361053b610bcb565b610be5565b90508373ffffffffffffffffffffffffffffffffffffffff168173ffffffffffffffffffffffffffffffffffffffff16146105b6578382826040517f64283d7b0000000000000000000000000000000000000000000000000000000081526004016105ad9392919061215d565b60405180910390fd5b50505050565b6105d78383836040518060200160405280600081525061078e565b505050565b60006105e782610b06565b9050919050565b60008073ffffffffffffffffffffffffffffffffffffffff168273ffffffffffffffffffffffffffffffffffffffff16036106615760006040517f89c62b640000000000000000000000000000000000000000000000000000000081526004016106589190611c7e565b60405180910390fd5b600360008373ffffffffffffffffffffffffffffffffffffffff1673ffffffffffffffffffffffffffffffffffffffff168152602001908152602001600020549050919050565b6106b0610dff565b6106ba6000610e86565b565b6000600760009054906101000a900473ffffffffffffffffffffffffffffffffffffffff16905090565b6060600180546106f59061212c565b80601f01602080910402602001604051908101604052809291908181526020018280546107219061212c565b801561076e5780601f106107435761010080835404028352916020019161076e565b820191906000526020600020905b81548152906001019060200180831161075157829003601f168201915b5050505050905090565b61078a610783610bcb565b8383610f4c565b5050565b6107998484846104ba565b6107a5848484846110bb565b50505050565b60606107b682610b06565b5060006006600084815260200190815260200160002080546107d79061212c565b80601f01602080910402602001604051908101604052809291908181526020018280546108039061212c565b80156108505780601f1061082557610100808354040283529160200191610850565b820191906000526020600020905b81548152906001019060200180831161083357829003601f168201915b505050505090506000610861611272565b905060008151036108765781925050506108b9565b6000825111156108ab5780826040516020016108939291906121d0565b604051602081830303815290604052925050506108b9565b6108b484611289565b925050505b919050565b60085481565b60006108ce610dff565b600060085490506108df33826112f2565b6108e981846113eb565b600860008154809291906108fc90612223565b919050555080915050919050565b6000600560008473ffffffffffffffffffffffffffffffffffffffff1673ffffffffffffffffffffffffffffffffffffffff16815260200190815260200160002060008373ffffffffffffffffffffffffffffffffffffffff1673ffffffffffffffffffffffffffffffffffffffff16815260200190815260200160002060009054906101000a900460ff16905092915050565b6109a6610dff565b600073ffffffffffffffffffffffffffffffffffffffff168173ffffffffffffffffffffffffffffffffffffffff1603610a185760006040517f1e4fbdf7000000000000000000000000000000000000000000000000000000008152600401610a0f9190611c7e565b60405180910390fd5b610a2181610e86565b50565b60007f80ac58cd000000000000000000000000000000000000000000000000000000007bffffffffffffffffffffffffffffffffffffffffffffffffffffffff1916827bffffffffffffffffffffffffffffffffffffffffffffffffffffffff19161480610aef57507f5b5e139f000000000000000000000000000000000000000000000000000000007bffffffffffffffffffffffffffffffffffffffffffffffffffffffff1916827bffffffffffffffffffffffffffffffffffffffffffffffffffffffff1916145b80610aff5750610afe82611447565b5b9050919050565b600080610b12836114b1565b9050600073ffffffffffffffffffffffffffffffffffffffff168173ffffffffffffffffffffffffffffffffffffffff1603610b8557826040517f7e273289000000000000000000000000000000000000000000000000000000008152600401610b7c9190611d94565b60405180910390fd5b80915050919050565b60006004600083815260200190815260200160002060009054906101000a900473ffffffffffffffffffffffffffffffffffffffff169050919050565b600033905090565b610be083838360016114ee565b505050565b600080610bf1846114b1565b9050600073ffffffffffffffffffffffffffffffffffffffff168373ffffffffffffffffffffffffffffffffffffffff1614610c3357610c328184866116b3565b5b600073ffffffffffffffffffffffffffffffffffffffff168173ffffffffffffffffffffffffffffffffffffffff1614610cc457610c756000856000806114ee565b6001600360008373ffffffffffffffffffffffffffffffffffffffff1673ffffffffffffffffffffffffffffffffffffffff168152602001908152602001600020600082825403925050819055505b600073ffffffffffffffffffffffffffffffffffffffff168573ffffffffffffffffffffffffffffffffffffffff1614610d47576001600360008773ffffffffffffffffffffffffffffffffffffffff1673ffffffffffffffffffffffffffffffffffffffff168152602001908152602001600020600082825401925050819055505b846002600086815260200190815260200160002060006101000a81548173ffffffffffffffffffffffffffffffffffffffff021916908373ffffffffffffffffffffffffffffffffffffffff160217905550838573ffffffffffffffffffffffffffffffffffffffff168273ffffffffffffffffffffffffffffffffffffffff167fddf252ad1be2c89b69c2b068fc378daa952ba7f163c4a11628f55a4df523b3ef60405160405180910390a4809150509392505050565b610e07610bcb565b73ffffffffffffffffffffffffffffffffffffffff16610e256106bc565b73ffffffffffffffffffffffffffffffffffffffff1614610e8457610e48610bcb565b6040517f118cdaa7000000000000000000000000000000000000000000000000000000008152600401610e7b9190611c7e565b60405180910390fd5b565b6000600760009054906101000a900473ffffffffffffffffffffffffffffffffffffffff16905081600760006101000a81548173ffffffffffffffffffffffffffffffffffffffff021916908373ffffffffffffffffffffffffffffffffffffffff1602179055508173ffffffffffffffffffffffffffffffffffffffff168173ffffffffffffffffffffffffffffffffffffffff167f8be0079c531659141344cd1fd0a4f28419497f9722a3daafe3b4186f6b6457e060405160405180910390a35050565b600073ffffffffffffffffffffffffffffffffffffffff168273ffffffffffffffffffffffffffffffffffffffff1603610fbd57816040517f5b08ba18000000000000000000000000000000000000000000000000000000008152600401610fb49190611c7e565b60405180910390fd5b80600560008573ffffffffffffffffffffffffffffffffffffffff1673ffffffffffffffffffffffffffffffffffffffff16815260200190815260200160002060008473ffffffffffffffffffffffffffffffffffffffff1673ffffffffffffffffffffffffffffffffffffffff16815260200190815260200160002060006101000a81548160ff0219169083151502179055508173ffffffffffffffffffffffffffffffffffffffff168373ffffffffffffffffffffffffffffffffffffffff167f17307eab39ab6107e8899845ad3d59bd9653f200f220920489ca2b5937696c31836040516110ae9190611b0d565b60405180910390a3505050565b60008373ffffffffffffffffffffffffffffffffffffffff163b111561126c578273ffffffffffffffffffffffffffffffffffffffff1663150b7a026110ff610bcb565b8685856040518563ffffffff1660e01b815260040161112194939291906122c0565b6020604051808303816000875af192505050801561115d57506040513d601f19601f8201168201806040525081019061115a9190612321565b60015b6111e1573d806000811461118d576040519150601f19603f3d011682016040523d82523d6000602084013e611192565b606091505b5060008151036111d957836040517f64a0ae920000000000000000000000000000000000000000000000000000000081526004016111d09190611c7e565b60405180910390fd5b805181602001fd5b63150b7a0260e01b7bffffffffffffffffffffffffffffffffffffffffffffffffffffffff1916817bffffffffffffffffffffffffffffffffffffffffffffffffffffffff19161461126a57836040517f64a0ae920000000000000000000000000000000000000000000000000000000081526004016112619190611c7e565b60405180910390fd5b505b50505050565b606060405180602001604052806000815250905090565b606061129482610b06565b50600061129f611272565b905060008151116112bf57604051806020016040528060008152506112ea565b806112c984611777565b6040516020016112da9291906121d0565b6040516020818303038152906040525b915050919050565b600073ffffffffffffffffffffffffffffffffffffffff168273ffffffffffffffffffffffffffffffffffffffff16036113645760006040517f64a0ae9200000000000000000000000000000000000000000000000000000000815260040161135b9190611c7e565b60405180910390fd5b600061137283836000610be5565b9050600073ffffffffffffffffffffffffffffffffffffffff168173ffffffffffffffffffffffffffffffffffffffff16146113e65760006040517f73c6ac6e0000000000000000000000000000000000000000000000000000000081526004016113dd9190611c7e565b60405180910390fd5b505050565b8060066000848152602001908152602001600020908161140b91906124fa565b507ff8e1a15aba9398e019f0b49df1a4fde98ee17ae345cb5f6b5e2c27f5033e8ce78260405161143b9190611d94565b60405180910390a15050565b60007f01ffc9a7000000000000000000000000000000000000000000000000000000007bffffffffffffffffffffffffffffffffffffffffffffffffffffffff1916827bffffffffffffffffffffffffffffffffffffffffffffffffffffffff1916149050919050565b60006002600083815260200190815260200160002060009054906101000a900473ffffffffffffffffffffffffffffffffffffffff169050919050565b80806115275750600073ffffffffffffffffffffffffffffffffffffffff168273ffffffffffffffffffffffffffffffffffffffff1614155b1561165b57600061153784610b06565b9050600073ffffffffffffffffffffffffffffffffffffffff168373ffffffffffffffffffffffffffffffffffffffff16141580156115a257508273ffffffffffffffffffffffffffffffffffffffff168173ffffffffffffffffffffffffffffffffffffffff1614155b80156115b557506115b3818461090a565b155b156115f757826040517fa9fbf51f0000000000000000000000000000000000000000000000000000000081526004016115ee9190611c7e565b60405180910390fd5b811561165957838573ffffffffffffffffffffffffffffffffffffffff168273ffffffffffffffffffffffffffffffffffffffff167f8c5be1e5ebec7d5bd14f71427d1e84f3dd0314c0f7b2291e5b200ac8c7c3b92560405160405180910390a45b505b836004600085815260200190815260200160002060006101000a81548173ffffffffffffffffffffffffffffffffffffffff021916908373ffffffffffffffffffffffffffffffffffffffff16021790555050505050565b6116be838383611845565b61177257600073ffffffffffffffffffffffffffffffffffffffff168373ffffffffffffffffffffffffffffffffffffffff160361173357806040517f7e27328900000000000000000000000000000000000000000000000000000000815260040161172a9190611d94565b60405180910390fd5b81816040517f177e802f0000000000000000000000000000000000000000000000000000000081526004016117699291906125cc565b60405180910390fd5b505050565b60606000600161178684611906565b01905060008167ffffffffffffffff8111156117a5576117a4611e25565b5b6040519080825280601f01601f1916602001820160405280156117d75781602001600182028036833780820191505090505b509050600082602001820190505b60011561183a578080600190039150507f3031323334353637383961626364656600000000000000000000000000000000600a86061a8153600a858161182e5761182d6125f5565b5b049450600085036117e5575b819350505050919050565b60008073ffffffffffffffffffffffffffffffffffffffff168373ffffffffffffffffffffffffffffffffffffffff16141580156118fd57508273ffffffffffffffffffffffffffffffffffffffff168473ffffffffffffffffffffffffffffffffffffffff1614806118be57506118bd848461090a565b5b806118fc57508273ffffffffffffffffffffffffffffffffffffffff166118e483610b8e565b73ffffffffffffffffffffffffffffffffffffffff16145b5b90509392505050565b600080600090507a184f03e93ff9f4daa797ed6e38ed64bf6a1f0100000000000000008310611964577a184f03e93ff9f4daa797ed6e38ed64bf6a1f010000000000000000838161195a576119596125f5565b5b0492506040810190505b6d04ee2d6d415b85acef810000000083106119a1576d04ee2d6d415b85acef81000000008381611997576119966125f5565b5b0492506020810190505b662386f26fc1000083106119d057662386f26fc1000083816119c6576119c56125f5565b5b0492506010810190505b6305f5e10083106119f9576305f5e10083816119ef576119ee6125f5565b5b0492506008810190505b6127108310611a1e576127108381611a1457611a136125f5565b5b0492506004810190505b60648310611a415760648381611a3757611a366125f5565b5b0492506002810190505b600a8310611a50576001810190505b80915050919050565b6000604051905090565b600080fd5b600080fd5b60007fffffffff0000000000000000000000000000000000000000000000000000000082169050919050565b611aa281611a6d565b8114611aad57600080fd5b50565b600081359050611abf81611a99565b92915050565b600060208284031215611adb57611ada611a63565b5b6000611ae984828501611ab0565b91505092915050565b60008115159050919050565b611b0781611af2565b82525050565b6000602082019050611b226000830184611afe565b92915050565b600081519050919050565b600082825260208201905092915050565b60005b83811015611b62578082015181840152602081019050611b47565b60008484015250505050565b6000601f19601f8301169050919050565b6000611b8a82611b28565b611b948185611b33565b9350611ba4818560208601611b44565b611bad81611b6e565b840191505092915050565b60006020820190508181036000830152611bd28184611b7f565b905092915050565b6000819050919050565b611bed81611bda565b8114611bf857600080fd5b50565b600081359050611c0a81611be4565b92915050565b600060208284031215611c2657611c25611a63565b5b6000611c3484828501611bfb565b91505092915050565b600073ffffffffffffffffffffffffffffffffffffffff82169050919050565b6000611c6882611c3d565b9050919050565b611c7881611c5d565b82525050565b6000602082019050611c936000830184611c6f565b92915050565b611ca281611c5d565b8114611cad57600080fd5b50565b600081359050611cbf81611c99565b92915050565b60008060408385031215611cdc57611cdb611a63565b5b6000611cea85828601611cb0565b9250506020611cfb85828601611bfb565b9150509250929050565b600080600060608486031215611d1e57611d1d611a63565b5b6000611d2c86828701611cb0565b9350506020611d3d86828701611cb0565b9250506040611d4e86828701611bfb565b9150509250925092565b600060208284031215611d6e57611d6d611a63565b5b6000611d7c84828501611cb0565b91505092915050565b611d8e81611bda565b82525050565b6000602082019050611da96000830184611d85565b92915050565b611db881611af2565b8114611dc357600080fd5b50565b600081359050611dd581611daf565b92915050565b60008060408385031215611df257611df1611a63565b5b6000611e0085828601611cb0565b9250506020611e1185828601611dc6565b9150509250929050565b600080fd5b600080fd5b7f4e487b7100000000000000000000000000000000000000000000000000000000600052604160045260246000fd5b611e5d82611b6e565b810181811067ffffffffffffffff82111715611e7c57611e7b611e25565b5b80604052505050565b6000611e8f611a59565b9050611e9b8282611e54565b919050565b600067ffffffffffffffff821115611ebb57611eba611e25565b5b611ec482611b6e565b9050602081019050919050565b82818337600083830152505050565b6000611ef3611eee84611ea0565b611e85565b905082815260208101848484011115611f0f57611f0e611e20565b5b611f1a848285611ed1565b509392505050565b600082601f830112611f3757611f36611e1b565b5b8135611f47848260208601611ee0565b91505092915050565b60008060008060808587031215611f6a57611f69611a63565b5b6000611f7887828801611cb0565b9450506020611f8987828801611cb0565b9350506040611f9a87828801611bfb565b925050606085013567ffffffffffffffff811115611fbb57611fba611a68565b5b611fc787828801611f22565b91505092959194509250565b600067ffffffffffffffff821115611fee57611fed611e25565b5b611ff782611b6e565b9050602081019050919050565b600061201761201284611fd3565b611e85565b90508281526020810184848401111561203357612032611e20565b5b61203e848285611ed1565b509392505050565b600082601f83011261205b5761205a611e1b565b5b813561206b848260208601612004565b91505092915050565b60006020828403121561208a57612089611a63565b5b600082013567ffffffffffffffff8111156120a8576120a7611a68565b5b6120b484828501612046565b91505092915050565b600080604083850312156120d4576120d3611a63565b5b60006120e285828601611cb0565b92505060206120f385828601611cb0565b9150509250929050565b7f4e487b7100000000000000000000000000000000000000000000000000000000600052602260045260246000fd5b6000600282049050600182168061214457607f821691505b602082108103612157576121566120fd565b5b50919050565b60006060820190506121726000830186611c6f565b61217f6020830185611d85565b61218c6040830184611c6f565b949350505050565b600081905092915050565b60006121aa82611b28565b6121b48185612194565b93506121c4818560208601611b44565b80840191505092915050565b60006121dc828561219f565b91506121e8828461219f565b91508190509392505050565b7f4e487b7100000000000000000000000000000000000000000000000000000000600052601160045260246000fd5b600061222e82611bda565b91507fffffffffffffffffffffffffffffffffffffffffffffffffffffffffffffffff82036122605761225f6121f4565b5b600182019050919050565b600081519050919050565b600082825260208201905092915050565b60006122928261226b565b61229c8185612276565b93506122ac818560208601611b44565b6122b581611b6e565b840191505092915050565b60006080820190506122d56000830187611c6f565b6122e26020830186611c6f565b6122ef6040830185611d85565b81810360608301526123018184612287565b905095945050505050565b60008151905061231b81611a99565b92915050565b60006020828403121561233757612336611a63565b5b60006123458482850161230c565b91505092915050565b60008190508160005260206000209050919050565b60006020601f8301049050919050565b600082821b905092915050565b6000600883026123b07fffffffffffffffffffffffffffffffffffffffffffffffffffffffffffffffff82612373565b6123ba8683612373565b95508019841693508086168417925050509392505050565b6000819050919050565b60006123f76123f26123ed84611bda565b6123d2565b611bda565b9050919050565b6000819050919050565b612411836123dc565b61242561241d826123fe565b848454612380565b825550505050565b600090565b61243a61242d565b612445818484612408565b505050565b5b818110156124695761245e600082612432565b60018101905061244b565b5050565b601f8211156124ae5761247f8161234e565b61248884612363565b81016020851015612497578190505b6124ab6124a385612363565b83018261244a565b50505b505050565b600082821c905092915050565b60006124d1600019846008026124b3565b1980831691505092915050565b60006124ea83836124c0565b9150826002028217905092915050565b61250382611b28565b67ffffffffffffffff81111561251c5761251b611e25565b5b612526825461212c565b61253182828561246d565b600060209050601f8311600181146125645760008415612552578287015190505b61255c85826124de565b8655506125c4565b601f1984166125728661234e565b60005b8281101561259a57848901518255600182019150602085019450602081019050612575565b868310156125b757848901516125b3601f8916826124c0565b8355505b6001600288020188555050505b505050505050565b60006040820190506125e16000830185611c6f565b6125ee6020830184611d85565b9392505050565b7f4e487b7100000000000000000000000000000000000000000000000000000000600052601260045260246000fdfea264697066735822122062102280b2d8ce48e20c0057f3f74a8bd3d22af90fecfee40d7f946775ea9c8264736f6c63430008140033",
  "linkReferences": {},
  "deployedLinkReferences": {}
}